:100000000C945E000C94D0000C94D0000C94D000A2
:100010000C94D0000C94D0000C94D0000C94D00020
:100020000C94D0000C94D0000C94D0000C94D00010
:100030000C94D0000C94D0000C94D0000C94D00000
:100040000C94D0000C94D0000C94D0000C94D000F0
:100050000C94D0000C94D0000C94D0000C94D000E0
:100060000C94D0000C94D0000C94D0000C94D000D0
:100070000C94D0000C94D0000C94D0000C94D000C0
:100080000C94D0000C94D0000C94D0000C94D000B0
:100090000C94D0000C94D0000C94D0000C94D000A0
:1000A0000C94D0000C94D0000C94D0000C94D00090
:1000B0000C94D000010001040001A40011241FBE13
:1000C000CFEFD8E0DEBFCDBFE4EBF0E040E017C0FB
:1000D000B591A59135912591059107FD0CC095919C
:1000E0008591EF01F92FE82F05900D92A217B30724
:1000F000D9F7FE0104C01D92A217B307E1F7EB3B4D
:10010000F40731F70E94B6000C948600F894FFCFF4
:10011000CF93DF9300D000D0CDB7DEB769837A8369
:100120008B839C8389819A81AB81BC8118161906C7
:100130001A061B06A4F489819A81AB81BC810197C0
:10014000A109B10989839A83AB83BC8389819A8190
:10015000AB81BC81181619061A061B0664F30F90B2
:0C0160000F900F900F90DF91CF91089549
:10016C0080E284B9C0E2609100017091010180913C
:10017C000201909103010E94880015B86091000162
:10018C007091010180910201909103010E948800FD
:04019C00C5B9E9CF29
:0401A0000C940000BB
:0401A400F04902001C
:00000001FF
