:100000000C945E000C94B8000C94B8000C94B800EA
:100010000C94B8000C94B8000C94B8000C94B80080
:100020000C94B8000C94B8000C94B8000C94B80070
:100030000C94B8000C94B8000C9488000C94B80090
:100040000C94B8000C94B8000C94B8000C94B80050
:100050000C94B8000C94B8000C94B8000C94B80040
:100060000C94B8000C94B8000C94B8000C94B80030
:100070000C94B8000C94B8000C94B8000C94B80020
:100080000C94B8000C94B8000C94B8000C94B80010
:100090000C94B8000C94B8000C94B8000C94B80000
:1000A0000C94B8000C94B8000C94B8000C94B800F0
:1000B0000C94B800010001010001740011241FBE5E
:1000C000CFEFD8E0DEBFCDBFE4EBF0E040E017C0FB
:1000D000B591A59135912591059107FD0CC095919C
:1000E0008591EF01F92FE82F05900D92A217B30724
:1000F000D9F7FE0104C01D92A217B307E1F7EB3B4D
:10010000F40731F70E94A5000C948600F894FFCF05
:100110001F920F920FB60F9211248F939F9380918D
:100120000001181624F481508093000107C095B196
:1001300080E2892785B980E8809300019F918F91A3
:0A0140000F900FBE0F901F9018954E
:10014A0080E284B985B984B5826084BD8FEF87BDAA
:10015A00EEE6F0E080818260808385B5856085BDAA
:06016A0078940000FECFB6
:040170000C940000EB
:01017400800A
:00000001FF
